{
  "contractName": "ComplainNetwork",
  "abi": [
    {
      "inputs": [],
      "payable": false,
      "stateMutability": "nonpayable",
      "type": "constructor"
    },
    {
      "constant": true,
      "inputs": [],
      "name": "complainCounter",
      "outputs": [
        {
          "internalType": "uint256",
          "name": "",
          "type": "uint256"
        }
      ],
      "payable": false,
      "stateMutability": "view",
      "type": "function"
    },
    {
      "constant": false,
      "inputs": [
        {
          "internalType": "uint256",
          "name": "cid",
          "type": "uint256"
        }
      ],
      "name": "viewCitizen",
      "outputs": [
        {
          "internalType": "string",
          "name": "",
          "type": "string"
        },
        {
          "internalType": "string",
          "name": "",
          "type": "string"
        },
        {
          "internalType": "uint256",
          "name": "",
          "type": "uint256"
        },
        {
          "internalType": "address",
          "name": "",
          "type": "address"
        }
      ],
      "payable": false,
      "stateMutability": "nonpayable",
      "type": "function"
    },
    {
      "constant": false,
      "inputs": [
        {
          "internalType": "string",
          "name": "name",
          "type": "string"
        },
        {
          "internalType": "string",
          "name": "email",
          "type": "string"
        },
        {
          "internalType": "string",
          "name": "password",
          "type": "string"
        },
        {
          "internalType": "uint256",
          "name": "phone",
          "type": "uint256"
        }
      ],
      "name": "registerCitizen",
      "outputs": [],
      "payable": false,
      "stateMutability": "nonpayable",
      "type": "function"
    },
    {
      "constant": true,
      "inputs": [
        {
          "internalType": "string",
          "name": "email",
          "type": "string"
        },
        {
          "internalType": "string",
          "name": "password",
          "type": "string"
        }
      ],
      "name": "LoginCitizen",
      "outputs": [
        {
          "internalType": "uint256",
          "name": "",
          "type": "uint256"
        }
      ],
      "payable": false,
      "stateMutability": "view",
      "type": "function"
    },
    {
      "constant": false,
      "inputs": [
        {
          "internalType": "string",
          "name": "data",
          "type": "string"
        },
        {
          "internalType": "uint256",
          "name": "lat",
          "type": "uint256"
        },
        {
          "internalType": "uint256",
          "name": "long",
          "type": "uint256"
        },
        {
          "internalType": "uint256",
          "name": "cat",
          "type": "uint256"
        }
      ],
      "name": "registerComplain",
      "outputs": [
        {
          "internalType": "uint256",
          "name": "",
          "type": "uint256"
        }
      ],
      "payable": true,
      "stateMutability": "payable",
      "type": "function"
    },
    {
      "constant": true,
      "inputs": [
        {
          "internalType": "uint256",
          "name": "cid",
          "type": "uint256"
        }
      ],
      "name": "viewSolution",
      "outputs": [
        {
          "internalType": "string",
          "name": "",
          "type": "string"
        }
      ],
      "payable": false,
      "stateMutability": "view",
      "type": "function"
    },
    {
      "constant": true,
      "inputs": [
        {
          "internalType": "uint256",
          "name": "cid",
          "type": "uint256"
        }
      ],
      "name": "viewComplain",
      "outputs": [
        {
          "internalType": "uint256",
          "name": "",
          "type": "uint256"
        },
        {
          "internalType": "uint256",
          "name": "",
          "type": "uint256"
        },
        {
          "internalType": "uint256",
          "name": "",
          "type": "uint256"
        },
        {
          "internalType": "uint256",
          "name": "",
          "type": "uint256"
        },
        {
          "internalType": "address",
          "name": "",
          "type": "address"
        },
        {
          "internalType": "string",
          "name": "",
          "type": "string"
        },
        {
          "internalType": "enum ComplainNetwork.Status",
          "name": "",
          "type": "uint8"
        }
      ],
      "payable": false,
      "stateMutability": "view",
      "type": "function"
    },
    {
      "constant": false,
      "inputs": [
        {
          "internalType": "uint256",
          "name": "cid",
          "type": "uint256"
        }
      ],
      "name": "resolve",
      "outputs": [],
      "payable": false,
      "stateMutability": "nonpayable",
      "type": "function"
    },
    {
      "constant": true,
      "inputs": [
        {
          "internalType": "uint256",
          "name": "cid",
          "type": "uint256"
        }
      ],
      "name": "getComplainSolver",
      "outputs": [
        {
          "internalType": "address payable",
          "name": "",
          "type": "address"
        }
      ],
      "payable": false,
      "stateMutability": "view",
      "type": "function"
    },
    {
      "constant": false,
      "inputs": [
        {
          "internalType": "uint256",
          "name": "cid",
          "type": "uint256"
        }
      ],
      "name": "declineProposal",
      "outputs": [],
      "payable": false,
      "stateMutability": "nonpayable",
      "type": "function"
    },
    {
      "constant": false,
      "inputs": [
        {
          "internalType": "uint256",
          "name": "cid",
          "type": "uint256"
        }
      ],
      "name": "fundComplain",
      "outputs": [],
      "payable": true,
      "stateMutability": "payable",
      "type": "function"
    },
    {
      "constant": false,
      "inputs": [
        {
          "internalType": "uint256",
          "name": "cid",
          "type": "uint256"
        },
        {
          "internalType": "string",
          "name": "solution",
          "type": "string"
        }
      ],
      "name": "claimSolution",
      "outputs": [],
      "payable": false,
      "stateMutability": "nonpayable",
      "type": "function"
    },
    {
      "constant": true,
      "inputs": [],
      "name": "checkFund",
      "outputs": [
        {
          "internalType": "uint256",
          "name": "",
          "type": "uint256"
        }
      ],
      "payable": false,
      "stateMutability": "view",
      "type": "function"
    }
  ],
  "bytecode": "0x608060405234801561001057600080fd5b5033600660006101000a81548173ffffffffffffffffffffffffffffffffffffffff021916908373ffffffffffffffffffffffffffffffffffffffff16021790555060008081905550600180819055506119538061006f6000396000f3fe6080604052600436106100c25760003560e01c80635c307e9d1161007f578063b17d25f111610059578063b17d25f11461083d578063b62d2633146108b8578063cc48bf16146109a5578063d5103a41146109e0576100c2565b80635c307e9d1461054057806394a170dd1461056b578063984dbb131461063d576100c2565b8063069b6df2146100c757806325a6c754146100f2578063359585e61461012057806337465820146102935780634275ffb4146103ab5780634f896d4f14610505575b600080fd5b3480156100d357600080fd5b506100dc610a94565b6040518082815260200191505060405180910390f35b61011e6004803603602081101561010857600080fd5b8101908080359060200190929190505050610a9c565b005b34801561012c57600080fd5b5061027d6004803603604081101561014357600080fd5b810190808035906020019064010000000081111561016057600080fd5b82018360208201111561017257600080fd5b8035906020019184600183028401116401000000008311171561019457600080fd5b91908080601f016020809104026020016040519081016040528093929190818152602001838380828437600081840152601f19601f820116905080830192505050505050509192919290803590602001906401000000008111156101f757600080fd5b82018360208201111561020957600080fd5b8035906020019184600183028401116401000000008311171561022b57600080fd5b91908080601f016020809104026020016040519081016040528093929190818152602001838380828437600081840152601f19601f820116905080830192505050505050509192919290505050610c07565b6040518082815260200191505060405180910390f35b34801561029f57600080fd5b506102cc600480360360208110156102b657600080fd5b8101908080359060200190929190505050610d7c565b604051808881526020018781526020018681526020018581526020018473ffffffffffffffffffffffffffffffffffffffff1673ffffffffffffffffffffffffffffffffffffffff1681526020018060200183600281111561032a57fe5b60ff168152602001828103825284818151815260200191508051906020019080838360005b8381101561036a57808201518184015260208101905061034f565b50505050905090810190601f1680156103975780820380516001836020036101000a031916815260200191505b509850505050505050505060405180910390f35b3480156103b757600080fd5b506103e4600480360360208110156103ce57600080fd5b8101908080359060200190929190505050610ef4565b6040518080602001806020018581526020018473ffffffffffffffffffffffffffffffffffffffff1673ffffffffffffffffffffffffffffffffffffffff168152602001838103835287818151815260200191508051906020019080838360005b83811015610460578082015181840152602081019050610445565b50505050905090810190601f16801561048d5780820380516001836020036101000a031916815260200191505b50838103825286818151815260200191508051906020019080838360005b838110156104c65780820151818401526020810190506104ab565b50505050905090810190601f1680156104f35780820380516001836020036101000a031916815260200191505b50965050505050505060405180910390f35b34801561051157600080fd5b5061053e6004803603602081101561052857600080fd5b81019080803590602001909291905050506110bb565b005b34801561054c57600080fd5b506105556111bb565b6040518082815260200191505060405180910390f35b34801561057757600080fd5b5061063b6004803603604081101561058e57600080fd5b8101908080359060200190929190803590602001906401000000008111156105b557600080fd5b8201836020820111156105c757600080fd5b803590602001918460018302840111640100000000831117156105e957600080fd5b91908080601f016020809104026020016040519081016040528093929190818152602001838380828437600081840152601f19601f8201169050808301925050505050505091929192905050506111c1565b005b34801561064957600080fd5b5061083b6004803603608081101561066057600080fd5b810190808035906020019064010000000081111561067d57600080fd5b82018360208201111561068f57600080fd5b803590602001918460018302840111640100000000831117156106b157600080fd5b91908080601f016020809104026020016040519081016040528093929190818152602001838380828437600081840152601f19601f8201169050808301925050505050505091929192908035906020019064010000000081111561071457600080fd5b82018360208201111561072657600080fd5b8035906020019184600183028401116401000000008311171561074857600080fd5b91908080601f016020809104026020016040519081016040528093929190818152602001838380828437600081840152601f19601f820116905080830192505050505050509192919290803590602001906401000000008111156107ab57600080fd5b8201836020820111156107bd57600080fd5b803590602001918460018302840111640100000000831117156107df57600080fd5b91908080601f016020809104026020016040519081016040528093929190818152602001838380828437600081840152601f19601f820116905080830192505050505050509192919290803590602001909291905050506112c0565b005b34801561084957600080fd5b506108766004803603602081101561086057600080fd5b81019080803590602001909291905050506113f2565b604051808273ffffffffffffffffffffffffffffffffffffffff1673ffffffffffffffffffffffffffffffffffffffff16815260200191505060405180910390f35b61098f600480360360808110156108ce57600080fd5b81019080803590602001906401000000008111156108eb57600080fd5b8201836020820111156108fd57600080fd5b8035906020019184600183028401116401000000008311171561091f57600080fd5b91908080601f016020809104026020016040519081016040528093929190818152602001838380828437600081840152601f19601f82011690508083019250505050505050919291929080359060200190929190803590602001909291908035906020019092919050505061142f565b6040518082815260200191505060405180910390f35b3480156109b157600080fd5b506109de600480360360208110156109c857600080fd5b8101908080359060200190929190505050611643565b005b3480156109ec57600080fd5b50610a1960048036036020811015610a0357600080fd5b81019080803590602001909291905050506117c1565b6040518080602001828103825283818151815260200191508051906020019080838360005b83811015610a59578082015181840152602081019050610a3e565b50505050905090810190601f168015610a865780820380516001836020036101000a031916815260200191505b509250505060405180910390f35b600047905090565b60006002811115610aa957fe5b6002600083815260200190815260200160002060050160149054906101000a900460ff166002811115610ad857fe5b1480610b1d575060016002811115610aec57fe5b6002600083815260200190815260200160002060050160149054906101000a900460ff166002811115610b1b57fe5b145b610b2657600080fd5b346002600083815260200190815260200160002060060160008282540192505081905550600260008281526020019081526020016000206008013390806001815401808255809150509060018203906000526020600020016000909192909190916101000a81548173ffffffffffffffffffffffffffffffffffffffff021916908373ffffffffffffffffffffffffffffffffffffffff160217905550506002600082815260200190815260200160002060090134908060018154018082558091505090600182039060005260206000200160009091929091909150555050565b600080600090505b600154811015610d60578380519060200120600360008381526020019081526020016000206002016040518082805460018160011615610100020316600290048015610c925780601f10610c70576101008083540402835291820191610c92565b820191906000526020600020905b815481529060010190602001808311610c7e575b50509150506040518091039020148015610d2f57508280519060200120600360008381526020019081526020016000206003016040518082805460018160011615610100020316600290048015610d205780601f10610cfe576101008083540402835291820191610d20565b820191906000526020600020905b815481529060010190602001808311610d0c575b50509150506040518091039020145b15610d53576003600082815260200190815260200160002060000154915050610d76565b8080600101915050610c0f565b600154811415610d74576000915050610d76565b505b92915050565b60008060008060006060600087600260008a815260200190815260200160002060060154600260008b815260200190815260200160002060010154600260008c815260200190815260200160002060000154600260008d815260200190815260200160002060050160009054906101000a900473ffffffffffffffffffffffffffffffffffffffff16600260008e8152602001908152602001600020600301600260008f815260200190815260200160002060050160149054906101000a900460ff16818054600181600116156101000203166002900480601f016020809104026020016040519081016040528092919081815260200182805460018160011615610100020316600290048015610ed45780601f10610ea957610100808354040283529160200191610ed4565b820191906000526020600020905b815481529060010190602001808311610eb757829003601f168201915b505050505091509650965096509650965096509650919395979092949650565b606080600080600360008681526020019081526020016000206001016003600087815260200190815260200160002060020160036000888152602001908152602001600020600401546003600089815260200190815260200160002060050160009054906101000a900473ffffffffffffffffffffffffffffffffffffffff16838054600181600116156101000203166002900480601f0160208091040260200160405190810160405280929190818152602001828054600181600116156101000203166002900480156110095780601f10610fde57610100808354040283529160200191611009565b820191906000526020600020905b815481529060010190602001808311610fec57829003601f168201915b50505050509350828054600181600116156101000203166002900480601f0160208091040260200160405190810160405280929190818152602001828054600181600116156101000203166002900480156110a55780601f1061107a576101008083540402835291602001916110a5565b820191906000526020600020905b81548152906001019060200180831161108857829003601f168201915b5050505050925093509350935093509193509193565b803373ffffffffffffffffffffffffffffffffffffffff166002600083815260200190815260200160002060050160009054906101000a900473ffffffffffffffffffffffffffffffffffffffff1673ffffffffffffffffffffffffffffffffffffffff161461112a57600080fd5b600280600084815260200190815260200160002060050160146101000a81548160ff0219169083600281111561115c57fe5b021790555060006002600084815260200190815260200160002060060181905550604051806020016040528060008152506002600084815260200190815260200160002060040190805190602001906111b6929190611879565b505050565b60005481565b600060028111156111ce57fe5b6002600084815260200190815260200160002060050160149054906101000a900460ff1660028111156111fd57fe5b1461120757600080fd5b60016002600084815260200190815260200160002060050160146101000a81548160ff0219169083600281111561123a57fe5b021790555080600260008481526020019081526020016000206004019080519060200190611269929190611879565b50336005600084815260200190815260200160002060006101000a81548173ffffffffffffffffffffffffffffffffffffffff021916908373ffffffffffffffffffffffffffffffffffffffff1602179055505050565b8360036000600154815260200190815260200160002060010190805190602001906112ec929190611879565b50826003600060015481526020019081526020016000206002019080519060200190611319929190611879565b50816003600060015481526020019081526020016000206003019080519060200190611346929190611879565b5080600360006001548152602001908152602001600020600401819055503360036000600154815260200190815260200160002060050160006101000a81548173ffffffffffffffffffffffffffffffffffffffff021916908373ffffffffffffffffffffffffffffffffffffffff1602179055506001600081548092919060010191905055506001546003600060015481526020019081526020016000206000018190555050505050565b60006005600083815260200190815260200160002060009054906101000a900473ffffffffffffffffffffffffffffffffffffffff169050919050565b600083600260008054815260200190815260200160002060000181905550826002600080548152602001908152602001600020600101819055508160026000805481526020019081526020016000206002018190555084600260008054815260200190815260200160002060030190805190602001906114b0929190611879565b5033600260008054815260200190815260200160002060050160006101000a81548173ffffffffffffffffffffffffffffffffffffffff021916908373ffffffffffffffffffffffffffffffffffffffff1602179055506000600260008054815260200190815260200160002060050160146101000a81548160ff0219169083600281111561153b57fe5b02179055503460026000805481526020019081526020016000206006018190555060003411156116225760026000805481526020019081526020016000206008013390806001815401808255809150509060018203906000526020600020016000909192909190916101000a81548173ffffffffffffffffffffffffffffffffffffffff021916908373ffffffffffffffffffffffffffffffffffffffff1602179055505060026000805481526020019081526020016000206009013490806001815401808255809150509060018203906000526020600020016000909192909190915055505b60008081548092919060010191905055506001600054039050949350505050565b803373ffffffffffffffffffffffffffffffffffffffff166002600083815260200190815260200160002060050160009054906101000a900473ffffffffffffffffffffffffffffffffffffffff1673ffffffffffffffffffffffffffffffffffffffff16146116b257600080fd5b600160028111156116bf57fe5b6002600084815260200190815260200160002060050160149054906101000a900460ff1660028111156116ee57fe5b146116f857600080fd5b60006002600084815260200190815260200160002060050160146101000a81548160ff0219169083600281111561172b57fe5b021790555060405180602001604052806000815250600260008481526020019081526020016000206004019080519060200190611769929190611879565b5060006005600084815260200190815260200160002060006101000a81548173ffffffffffffffffffffffffffffffffffffffff021916908373ffffffffffffffffffffffffffffffffffffffff1602179055505050565b6060600260008381526020019081526020016000206004018054600181600116156101000203166002900480601f01602080910402602001604051908101604052809291908181526020018280546001816001161561010002031660029004801561186d5780601f106118425761010080835404028352916020019161186d565b820191906000526020600020905b81548152906001019060200180831161185057829003601f168201915b50505050509050919050565b828054600181600116156101000203166002900490600052602060002090601f016020900481019282601f106118ba57805160ff19168380011785556118e8565b828001600101855582156118e8579182015b828111156118e75782518255916020019190600101906118cc565b5b5090506118f591906118f9565b5090565b61191b91905b808211156119175760008160009055506001016118ff565b5090565b9056fea265627a7a723158206819e97ddceaf2f95b88c8606eb4107a783322d963413143f0aa7d1bd66cef9864736f6c63430005100032",
  "source": "pragma solidity 0.5.16;\r\n\r\ncontract ComplainNetwork{\r\n    // let us start with creating the contract in solidity 0.5.0 \r\n    // we need some changes for view and taking action \r\n    \r\n    enum Status {Pending,Proposed,Resolved }\r\n    struct Citizen{\r\n        uint _citId;\r\n        string _name;\r\n        string _email;\r\n        string _password;\r\n        uint _phone;\r\n        address _accAddress;\r\n        // should you store the address or not that is the quest\r\n    }\r\n    \r\n    struct Complaint{\r\n        // for storing the location\r\n        uint _lat;\r\n        uint _long;\r\n        // category\r\n        uint _category;\r\n        string _data;\r\n        string _proposedSolution;\r\n        address _personId;\r\n        Status _status;\r\n        uint _reward;\r\n        address _policeAssigned;\r\n        address payable[] _contributors;\r\n        uint[] _contAmount;\r\n    }\r\n    \r\n    \r\n\r\n    uint public complainCounter;\r\n    uint private citizenCount;\r\n    mapping(uint =>Complaint) private complainMap; \r\n    mapping(uint =>Citizen) private loginData;\r\n    mapping(address =>bool) private policeAccounts;\r\n    mapping(uint => address payable) complainSolver;\r\n    address private superUser;\r\n\r\n    constructor() public {\r\n        superUser = msg.sender;\r\n        complainCounter = 0;\r\n        citizenCount = 1;\r\n    }\r\n\r\n    modifier complainOwnerAccess(uint cid){\r\n        // check if user is the one who register the complaint\r\n        require(complainMap[cid]._personId== msg.sender);\r\n        _;\r\n    }\r\n    modifier superUserAccess(){\r\n        require(msg.sender ==superUser);\r\n        _;\r\n    }\r\n    modifier complainOwnOrPoliceAccess(uint cid) {\r\n        require(policeAccounts[msg.sender] == true || msg.sender == complainMap[cid]._personId);\r\n        _;\r\n    }\r\n    function viewCitizen(uint cid) public returns(string memory,string memory,uint,address){\r\n        return(loginData[cid]._name,loginData[cid]._email,loginData[cid]._phone,loginData[cid]._accAddress);\r\n    }\r\n    function registerCitizen(string memory name,string memory email ,string memory password ,uint phone ) public {\r\n        loginData[citizenCount]._name = name;\r\n        loginData[citizenCount]._email = email;\r\n        loginData[citizenCount]._password = password;\r\n        loginData[citizenCount]._phone = phone ;\r\n        loginData[citizenCount]._accAddress = msg.sender;\r\n        // should you store the address of the curr user \r\n        // create a mapping for address to password\r\n        citizenCount++;\r\n        loginData[citizenCount]._citId = citizenCount;\r\n        //increment the citizencount then the value \r\n\r\n    }\r\n    function LoginCitizen(string memory email,string memory password) public view returns(uint){\r\n        // start with checking if email exists in logindata \r\n        // check for authentication \r\n        uint i ;\r\n        for( i = 0;i<citizenCount;i++){\r\n            if((keccak256(bytes(loginData[i]._email)) == keccak256(bytes(email))) && (keccak256(bytes(loginData[i]._password)) == keccak256(bytes(password)))){\r\n                // if email and password matches the user then return true or else false;\r\n                return loginData[i]._citId;\r\n            }     \r\n        }\r\n        if(i==citizenCount){\r\n            return 0;\r\n        }\r\n    }\r\n    // let us write a function to register a complaint\r\n    function registerComplain(string memory data,uint lat,uint long,uint cat) public payable returns(uint){\r\n        complainMap[complainCounter]._lat = lat;\r\n        complainMap[complainCounter]._long = long;\r\n        complainMap[complainCounter]._category = cat;\r\n        complainMap[complainCounter]._data = data;\r\n        complainMap[complainCounter]._personId = msg.sender;\r\n        complainMap[complainCounter]._status = Status.Pending;\r\n        complainMap[complainCounter]._reward = msg.value;\r\n        \r\n        if(msg.value >0){\r\n            // if the person who has registered complain has put some reward add his name to the contributors\r\n            complainMap[complainCounter]._contributors.push(msg.sender);\r\n            complainMap[complainCounter]._contAmount.push(msg.value);\r\n        }\r\n\r\n        complainCounter++;\r\n        return complainCounter-1;\r\n\r\n        // done with the register function ;\r\n        //[0xD2Af2CbF3D3B93A61BdC41d0Def688d68CE94Fd0,0xEEF9904227552c98CEB16cc835182538352c5C6a]\r\n    }  \r\n    \r\n    function viewSolution(uint cid) public view returns(string memory){\r\n        return (complainMap[cid]._proposedSolution);\r\n    }\r\n    function viewComplain(uint cid) public view returns(uint ,uint ,uint,uint,address,string memory,Status ){\r\n        // we can now atleast register the complain and then view it \r\n        return (cid,complainMap[cid]._reward,complainMap[cid]._long,complainMap[cid]._lat,complainMap[cid]._personId,complainMap[cid]._data,complainMap[cid]._status);   \r\n    }\r\n\r\n    function resolve(uint cid) public complainOwnerAccess(cid){\r\n        // only the owner of complain can resolve the complaint\r\n        complainMap[cid]._status = Status.Resolved;\r\n        // if resolved call the transferFunds function\r\n        complainMap[cid]._reward = 0;\r\n        complainMap[cid]._proposedSolution = \"\";\r\n        // transferFunds(cid);\r\n    }\r\n\r\n    // function transferFunds(uint cid) private{\r\n    //     if(complainMap[cid]._reward > 0){\r\n    //         complainSolver[cid].transfer(complainMap[cid]._reward);\r\n    //     }\r\n    //     // transfer funds not working so what to do \r\n\r\n    // } \r\n    function getComplainSolver(uint cid) public view returns(address payable){\r\n        return complainSolver[cid];\r\n    }\r\n    \r\n    function declineProposal(uint cid) public complainOwnerAccess(cid) {\r\n        require( complainMap[cid]._status == Status.Proposed );\r\n        complainMap[cid]._status = Status.Pending;\r\n        complainMap[cid]._proposedSolution = \"\";\r\n        complainSolver[cid] = address(uint160(0));\r\n    }\r\n    \r\n    function fundComplain(uint cid) public payable{\r\n        require((complainMap[cid]._status == Status.Pending) || (complainMap[cid]._status == Status.Proposed));\r\n        complainMap[cid]._reward += msg.value;\r\n        complainMap[cid]._contributors.push(msg.sender);\r\n        complainMap[cid]._contAmount.push(msg.value);\r\n    }\r\n    function claimSolution(uint cid,string memory solution) public   {\r\n        require(complainMap[cid]._status == Status.Pending);\r\n        complainMap[cid]._status = Status.Proposed;\r\n        complainMap[cid]._proposedSolution = solution;\r\n        complainSolver[cid] = msg.sender;\r\n    }\r\n    \r\n    function checkFund() public view returns(uint){\r\n        return address(this).balance;\r\n    }\r\n}",
  "sourcePath": "F:\\CODING\\BLOCKCHAIN\\OCN\\contracts\\ComplainNetwork.sol",
  "compiler": {
    "name": "solc",
    "version": "0.5.16+commit.9c3226ce.Emscripten.clang"
  },
  "schemaVersion": "3.4.3",
  "updatedAt": "2021-10-04T15:40:08.294Z",
  "networkType": "ethereum",
  "devdoc": {
    "methods": {}
  },
  "userdoc": {
    "methods": {}
  }
}